:03000000020ACB26
:0C0ACB00787FE4F6D8FD758120020B1244
:020C9D00C10094
:0F0C6D00E5A0541F44A0F5A0E4F58053A01F227A
:03002300020C4983
:050C4900C0D075D018B9
:0C0C4E00309809C298AF99BF2002D20074
:030C5A00D0D032C5
:100BF00053877F759850538EBF538EFE53890F4392
:100C00008920758BFD758DFDC2ABD28ED2AFD2AC73
:010C100022C1
:080C95008F993099FDC29922EC
:0E0C7C00AD07AC06AF04120C95AF05020C9547
:0F0C5D00120B57300009C2AC120C7CD2ACC20093
:010C6C002265
:0B0C8A00120C6D120BF0120C5D80FBD1
:040BCC007F057E0023
:100BD000EF1FAA0670011E4A6015E4FCFDC3ED94E8
:0F0BE0000CEC6480948050E80DBD00010C80EE99
:010BEF0022E3
:100BA500C201D2947F0C7E00120BD0C2947F507E7E
:100BB50000120BD0D2947F0A7E00120BD0A2949221
:060BC50001120BCCA2019D
:010BCB002207
:020C1100A90731
:100C1300E4FBC294E9139294120BCCD294E9C3136C
:0C0C2300F90BBB08ED7F057E00020BD032
:100C2F00E4FBC294E9C313F9D294309403430180D7
:090C3F00120BCC0BBB08EBAF015A
:010C48002289
:100B5700120BA57FCC120C117F44120C117FC87E9B
:100B670000120BD0120BA57FCC120C117FBE120CFA
:100B770011120C2F8F08120C2FEF540FFEE508FFF0
:100B8700FDAC06EC120A03E4FBFA7920783F120861
:0D0B9700F8E4FBFAF9783F120807120A3C57
:010BA400222E
:10080000020AA8E86480F8E933E83360110460F074
:10081000ED33EC337009E8FCE9FDEAFEEBFF22045E
:1008200060DED3EB9FEA9EE99DE8C2E78CF0C2F759
:1008300095F0400CE8CCF8E9CDF9EACEFAEBCFFB25
:10084000120A7385D0F05804700320D5B3E8047001
:10085000075002B2D5020AB292D5EC0460F7E4CC9C
:10086000C0E0C398F8603B94186008400DD0E0FBEE
:10087000020A8AE4FBFAC9FC8028E830E406E4C9ED
:10088000FBE4CAFCE830E305E4C9CACBFCE8540742
:100890006010F8C3E913F9EA13FAEB13FBEC13FC4D
:1008A000D8F130F52FC3E49CFCEF9BFFEE9AFEEDF0
:1008B00099FDD0E0FBEF4E4D4C701222DB03020A93
:1008C000AFEC2CFCEF33FFEE33FEED33FDED30E704
:1008D000EB020A8AEF2BFFEE3AFEED39FDD0E0FB8A
:1008E00050130BBB0003020AB2ED13FDEE13FEEF33
:0808F00013FFEC13FC020A8A5D
:1008F800EC4D6011E8497017ED33EC3304600DE4FA
:10090800FCFFFEFD22E933E8330470F8020AA8125E
:100918000A7358046009E4CC24815006285009025F
:100928000AB2284003020AAFC0E0EB4A7044B9801B
:1009380006D0E0FB020A9EEF4E701CBD8008EBFF5C
:10094800EAFEE9FD80EBE98DF0A4FEE5F00209E19D
:10095800E9CDF9EAFEEBFFEF89F0A4FCE5F0CE89DA
:10096800F0A42EFFE435F0CD89F0A42DFEE435F097
:100978008067EF4E7005BD80D780C3EF8BF0A4ACC5
:10098800F0EE8BF0A42CFCE435F0F8EF8AF0A42C00
:10099800E5F038FCE433CB8DF0A42CFCE5F03BF813
:1009A800EE8AF0A42CFCE5F038F8E433CF89F0A403
:1009B8002CFCE5F038CF3400CE89F0A42FFFE5F009
:1009C8003EFEE433C98DF0A42EFEE5F039CD8AF061
:1009D800A42FFFE5F03EFEE43DFD33D0E0FB5007D9
:1009E8000BBB000F020AB2EC2CFCEF33FFEE33FE18
:0609F800ED33FD020A8A46
:1009FE0075F020800E75F010800575F0087D007E74
:100A0E00007F003392D530D503120ABDEC3340106F
:100A1E00EF33FFEE33FEED33FDEC33FCD5F0ED227C
:0E0A2E00E5F0247EA2D513CC92E7CDCEFF22B8
:100A3C00EDD2E7CD33EC3392D524814006E4FFFEB2
:100A4C00FDFC22FCE4CFCECDCC24E0501174FF8011
:100A5C00EDC3CC13CCCD13CDCE13CECF13CF0470AE
:070A6C00F030D5DE020ABDE7
:100A7300E9D2E7C933E833F892D5EDD2E7CD33ECC9
:070A830033FC5002B2D52242
:100A8A00EC30E7100FBF000C0EBE00080DBD0004CD
:100A9A000BEB6014A2D5EB13FCED92E7FD2274FF79
:100AAA00FCFDFEFF22E480F8A2D574FF13FC7D80D2
:030ABA00E480EFE6
:100AD700020C8AE493A3F8E493A34003F68001F29F
:100AE70008DFF48029E493A3F85407240CC8C33320
:100AF700C4540F4420C8834004F456800146F6DFEF
:100B0700E4800B0102040810204080900C9DE47ED5
:100B1700019360BCA3FF543F30E509541FFEE493E3
:100B2700A360010ECF54C025E060A840B8E493A3AA
:100B3700FAE493A3F8E493A3C8C582C8CAC583CAD5
:100B4700F0A3C8C582C8CAC583CADFE9DEE780BE8D
:010C9F000054
:0E0ABD00C3E49FFFE49EFEE49DFDE49CFC224A
:00000001FF
